{
  "contractName": "BrokenVault",
  "abi": [
    {
      "constant": true,
      "inputs": [],
      "name": "locked",
      "outputs": [
        {
          "name": "",
          "type": "bool"
        }
      ],
      "payable": false,
      "stateMutability": "view",
      "type": "function"
    },
    {
      "inputs": [],
      "payable": false,
      "stateMutability": "nonpayable",
      "type": "constructor"
    },
    {
      "constant": false,
      "inputs": [
        {
          "name": "_password",
          "type": "bytes32"
        }
      ],
      "name": "unlock",
      "outputs": [],
      "payable": false,
      "stateMutability": "nonpayable",
      "type": "function"
    }
  ],
  "bytecode": "0x608060405234801561001057600080fd5b5060016000806101000a81548160ff0219169083151502179055507f7265616c6c795f6e6f745f73656372657400000000000000000000000000000060018160001916905550610115806100656000396000f3006080604052600436106049576000357c0100000000000000000000000000000000000000000000000000000000900463ffffffff168063cf30901214604e578063ec9b5b3a14607a575b600080fd5b348015605957600080fd5b50606060a8565b604051808215151515815260200191505060405180910390f35b348015608557600080fd5b5060a6600480360381019080803560001916906020019092919050505060ba565b005b6000809054906101000a900460ff1681565b806000191660015460001916141560e65760008060006101000a81548160ff0219169083151502179055505b505600a165627a7a72305820b95b38fbdfbab44799405bebe4bf0bc0705042dc50886114c103346d3da8af570029",
  "source": "pragma solidity ^0.4.24;\n\ncontract BrokenVault {\n    bool public locked;\n    bytes32 private password;\n\n    constructor() public {\n        locked = true;\n        password = \"really_not_secret\";\n    }\n\n    function unlock(bytes32 _password) public {\n        if (password == _password) {\n            locked = false;\n        }\n    }\n}",
  "sourcePath": "/home/tullio/workspace/solidity-playground/contracts/BrokenVault/BrokenVault.sol",
  "compiler": {
    "name": "solc",
    "version": "0.4.24+commit.e67f0147.Emscripten.clang"
  },
  "schemaVersion": "2.0.1",
  "updatedAt": "2018-12-09T17:36:56.272Z"
}