{
  "contractName": "BrokenSplitter",
  "abi": [
    {
      "constant": true,
      "inputs": [],
      "name": "two",
      "outputs": [
        {
          "name": "",
          "type": "address"
        }
      ],
      "payable": false,
      "stateMutability": "view",
      "type": "function"
    },
    {
      "constant": true,
      "inputs": [],
      "name": "one",
      "outputs": [
        {
          "name": "",
          "type": "address"
        }
      ],
      "payable": false,
      "stateMutability": "view",
      "type": "function"
    },
    {
      "inputs": [
        {
          "name": "_two",
          "type": "address"
        }
      ],
      "payable": true,
      "stateMutability": "payable",
      "type": "constructor"
    },
    {
      "payable": true,
      "stateMutability": "payable",
      "type": "fallback"
    }
  ],
  "bytecode": "0x60806040526040516020806103138339810180604052810190808051906020019092919050505060003411151561003557600080fd5b336000806101000a81548173ffffffffffffffffffffffffffffffffffffffff021916908373ffffffffffffffffffffffffffffffffffffffff16021790555080600160006101000a81548173ffffffffffffffffffffffffffffffffffffffff021916908373ffffffffffffffffffffffffffffffffffffffff1602179055505061024d806100c66000396000f30060806040526004361061004c576000357c0100000000000000000000000000000000000000000000000000000000900463ffffffff1680635fdf05d714610128578063901717d11461017f575b600060033073ffffffffffffffffffffffffffffffffffffffff163181151561007157fe5b0490506000809054906101000a900473ffffffffffffffffffffffffffffffffffffffff1673ffffffffffffffffffffffffffffffffffffffff168160405160006040518083038185875af19250505015156100cc57600080fd5b600160009054906101000a900473ffffffffffffffffffffffffffffffffffffffff1673ffffffffffffffffffffffffffffffffffffffff168160405160006040518083038185875af192505050151561012557600080fd5b50005b34801561013457600080fd5b5061013d6101d6565b604051808273ffffffffffffffffffffffffffffffffffffffff1673ffffffffffffffffffffffffffffffffffffffff16815260200191505060405180910390f35b34801561018b57600080fd5b506101946101fc565b604051808273ffffffffffffffffffffffffffffffffffffffff1673ffffffffffffffffffffffffffffffffffffffff16815260200191505060405180910390f35b600160009054906101000a900473ffffffffffffffffffffffffffffffffffffffff1681565b6000809054906101000a900473ffffffffffffffffffffffffffffffffffffffff16815600a165627a7a7230582084fbe43f95e5a8cf7d4c69f33efb6d874d363fd00e73af61c551ca7596848f930029",
  "source": "pragma solidity ^0.4.24;\n\ncontract BrokenSplitter {\n    address public one;\n    address public two;\n\n    constructor(address _two) public payable {\n        require(msg.value > 0);\n        one = msg.sender;\n        two = _two;\n    }\n\n    function () public payable {\n        uint amount = address(this).balance / 3;\n        require(one.call.value(amount)());\n        require(two.call.value(amount)());\n    }\n}",
  "sourcePath": "/home/tullio/workspace/solidity-playground/contracts/BrokenSplitter/BrokenSplitter.sol",
  "compiler": {
    "name": "solc",
    "version": "0.4.24+commit.e67f0147.Emscripten.clang"
  },
  "schemaVersion": "2.0.1",
  "updatedAt": "2018-11-18T23:27:23.801Z"
}