{
  "contractName": "BrokenSplitter",
  "abi": [
    {
      "constant": true,
      "inputs": [],
      "name": "two",
      "outputs": [
        {
          "name": "",
          "type": "address"
        }
      ],
      "payable": false,
      "stateMutability": "view",
      "type": "function"
    },
    {
      "constant": true,
      "inputs": [],
      "name": "one",
      "outputs": [
        {
          "name": "",
          "type": "address"
        }
      ],
      "payable": false,
      "stateMutability": "view",
      "type": "function"
    },
    {
      "inputs": [
        {
          "name": "_two",
          "type": "address"
        }
      ],
      "payable": true,
      "stateMutability": "payable",
      "type": "constructor"
    },
    {
      "payable": true,
      "stateMutability": "payable",
      "type": "fallback"
    }
  ],
  "bytecode": "0x608060405260405160208061044e8339810180604052810190808051906020019092919050505060003411151561009e576040517f08c379a00000000000000000000000000000000000000000000000000000000081526004018080602001828103825260118152602001807f6d73672076616c7565206973207a65726f00000000000000000000000000000081525060200191505060405180910390fd5b336000806101000a81548173ffffffffffffffffffffffffffffffffffffffff021916908373ffffffffffffffffffffffffffffffffffffffff16021790555080600160006101000a81548173ffffffffffffffffffffffffffffffffffffffff021916908373ffffffffffffffffffffffffffffffffffffffff1602179055505061031f8061012f6000396000f30060806040526004361061004c576000357c0100000000000000000000000000000000000000000000000000000000900463ffffffff1680635fdf05d7146101fa578063901717d114610251575b600060033073ffffffffffffffffffffffffffffffffffffffff163181151561007157fe5b0490506000809054906101000a900473ffffffffffffffffffffffffffffffffffffffff1673ffffffffffffffffffffffffffffffffffffffff168160405160006040518083038185875af1925050501515610135576040517f08c379a00000000000000000000000000000000000000000000000000000000081526004018080602001828103825260128152602001807f63616c6c20746f206f6e65206661696c6564000000000000000000000000000081525060200191505060405180910390fd5b600160009054906101000a900473ffffffffffffffffffffffffffffffffffffffff1673ffffffffffffffffffffffffffffffffffffffff168160405160006040518083038185875af19250505015156101f7576040517f08c379a00000000000000000000000000000000000000000000000000000000081526004018080602001828103825260128152602001807f63616c6c20746f2074776f206661696c6564000000000000000000000000000081525060200191505060405180910390fd5b50005b34801561020657600080fd5b5061020f6102a8565b604051808273ffffffffffffffffffffffffffffffffffffffff1673ffffffffffffffffffffffffffffffffffffffff16815260200191505060405180910390f35b34801561025d57600080fd5b506102666102ce565b604051808273ffffffffffffffffffffffffffffffffffffffff1673ffffffffffffffffffffffffffffffffffffffff16815260200191505060405180910390f35b600160009054906101000a900473ffffffffffffffffffffffffffffffffffffffff1681565b6000809054906101000a900473ffffffffffffffffffffffffffffffffffffffff16815600a165627a7a723058201a17a84624ff9559e663b6575204b8c4bb9885ec3248c37a21813644b804d0550029",
  "source": "pragma solidity ^0.4.24;\n\ncontract BrokenSplitter {\n    address public one;\n    address public two;\n\n    constructor(address _two) public payable {\n        require(msg.value > 0, \"msg value is zero\");\n        one = msg.sender;\n        two = _two;\n    }\n\n    function () public payable {\n        uint amount = address(this).balance / 3;\n        require(one.call.value(amount)(), \"call to one failed\");\n        require(two.call.value(amount)(), \"call to two failed\");\n    }\n}",
  "sourcePath": "/home/tullio/workspace/solidity-playground/contracts/BrokenSplitter/BrokenSplitter.sol",
  "compiler": {
    "name": "solc",
    "version": "0.4.24+commit.e67f0147.Emscripten.clang"
  },
  "schemaVersion": "2.0.1",
  "updatedAt": "2018-12-09T17:36:56.146Z"
}